{
  "contractName": "Condos",
  "abi": [
    {
      "inputs": [],
      "stateMutability": "payable",
      "type": "constructor",
      "payable": true
    },
    {
      "anonymous": false,
      "inputs": [
        {
          "indexed": true,
          "internalType": "address",
          "name": "owner",
          "type": "address"
        },
        {
          "indexed": true,
          "internalType": "address",
          "name": "approved",
          "type": "address"
        },
        {
          "indexed": true,
          "internalType": "uint256",
          "name": "tokenId",
          "type": "uint256"
        }
      ],
      "name": "Approval",
      "type": "event"
    },
    {
      "anonymous": false,
      "inputs": [
        {
          "indexed": true,
          "internalType": "address",
          "name": "owner",
          "type": "address"
        },
        {
          "indexed": true,
          "internalType": "address",
          "name": "operator",
          "type": "address"
        },
        {
          "indexed": false,
          "internalType": "bool",
          "name": "approved",
          "type": "bool"
        }
      ],
      "name": "ApprovalForAll",
      "type": "event"
    },
    {
      "anonymous": false,
      "inputs": [
        {
          "indexed": true,
          "internalType": "address",
          "name": "from",
          "type": "address"
        },
        {
          "indexed": true,
          "internalType": "address",
          "name": "to",
          "type": "address"
        },
        {
          "indexed": true,
          "internalType": "uint256",
          "name": "tokenId",
          "type": "uint256"
        }
      ],
      "name": "Transfer",
      "type": "event"
    },
    {
      "inputs": [],
      "name": "Id",
      "outputs": [
        {
          "internalType": "uint32",
          "name": "",
          "type": "uint32"
        }
      ],
      "stateMutability": "view",
      "type": "function",
      "constant": true
    },
    {
      "inputs": [
        {
          "internalType": "address",
          "name": "",
          "type": "address"
        }
      ],
      "name": "MDTrack",
      "outputs": [
        {
          "internalType": "uint32",
          "name": "",
          "type": "uint32"
        }
      ],
      "stateMutability": "view",
      "type": "function",
      "constant": true
    },
    {
      "inputs": [
        {
          "internalType": "address",
          "name": "to",
          "type": "address"
        },
        {
          "internalType": "uint256",
          "name": "tokenId",
          "type": "uint256"
        }
      ],
      "name": "approve",
      "outputs": [],
      "stateMutability": "nonpayable",
      "type": "function"
    },
    {
      "inputs": [
        {
          "internalType": "address",
          "name": "owner",
          "type": "address"
        }
      ],
      "name": "balanceOf",
      "outputs": [
        {
          "internalType": "uint256",
          "name": "",
          "type": "uint256"
        }
      ],
      "stateMutability": "view",
      "type": "function",
      "constant": true
    },
    {
      "inputs": [
        {
          "internalType": "uint256",
          "name": "tokenId",
          "type": "uint256"
        }
      ],
      "name": "getApproved",
      "outputs": [
        {
          "internalType": "address",
          "name": "",
          "type": "address"
        }
      ],
      "stateMutability": "view",
      "type": "function",
      "constant": true
    },
    {
      "inputs": [
        {
          "internalType": "address",
          "name": "owner",
          "type": "address"
        },
        {
          "internalType": "address",
          "name": "operator",
          "type": "address"
        }
      ],
      "name": "isApprovedForAll",
      "outputs": [
        {
          "internalType": "bool",
          "name": "",
          "type": "bool"
        }
      ],
      "stateMutability": "view",
      "type": "function",
      "constant": true
    },
    {
      "inputs": [],
      "name": "name",
      "outputs": [
        {
          "internalType": "string",
          "name": "",
          "type": "string"
        }
      ],
      "stateMutability": "view",
      "type": "function",
      "constant": true
    },
    {
      "inputs": [
        {
          "internalType": "uint256",
          "name": "tokenId",
          "type": "uint256"
        }
      ],
      "name": "ownerOf",
      "outputs": [
        {
          "internalType": "address",
          "name": "",
          "type": "address"
        }
      ],
      "stateMutability": "view",
      "type": "function",
      "constant": true
    },
    {
      "inputs": [
        {
          "internalType": "address",
          "name": "from",
          "type": "address"
        },
        {
          "internalType": "address",
          "name": "to",
          "type": "address"
        },
        {
          "internalType": "uint256",
          "name": "tokenId",
          "type": "uint256"
        }
      ],
      "name": "safeTransferFrom",
      "outputs": [],
      "stateMutability": "nonpayable",
      "type": "function"
    },
    {
      "inputs": [
        {
          "internalType": "address",
          "name": "from",
          "type": "address"
        },
        {
          "internalType": "address",
          "name": "to",
          "type": "address"
        },
        {
          "internalType": "uint256",
          "name": "tokenId",
          "type": "uint256"
        },
        {
          "internalType": "bytes",
          "name": "_data",
          "type": "bytes"
        }
      ],
      "name": "safeTransferFrom",
      "outputs": [],
      "stateMutability": "nonpayable",
      "type": "function"
    },
    {
      "inputs": [
        {
          "internalType": "address",
          "name": "operator",
          "type": "address"
        },
        {
          "internalType": "bool",
          "name": "approved",
          "type": "bool"
        }
      ],
      "name": "setApprovalForAll",
      "outputs": [],
      "stateMutability": "nonpayable",
      "type": "function"
    },
    {
      "inputs": [
        {
          "internalType": "bytes4",
          "name": "interfaceId",
          "type": "bytes4"
        }
      ],
      "name": "supportsInterface",
      "outputs": [
        {
          "internalType": "bool",
          "name": "",
          "type": "bool"
        }
      ],
      "stateMutability": "view",
      "type": "function",
      "constant": true
    },
    {
      "inputs": [],
      "name": "symbol",
      "outputs": [
        {
          "internalType": "string",
          "name": "",
          "type": "string"
        }
      ],
      "stateMutability": "view",
      "type": "function",
      "constant": true
    },
    {
      "inputs": [
        {
          "internalType": "uint256",
          "name": "tokenId",
          "type": "uint256"
        }
      ],
      "name": "tokenURI",
      "outputs": [
        {
          "internalType": "string",
          "name": "",
          "type": "string"
        }
      ],
      "stateMutability": "view",
      "type": "function",
      "constant": true
    },
    {
      "inputs": [
        {
          "internalType": "address",
          "name": "from",
          "type": "address"
        },
        {
          "internalType": "address",
          "name": "to",
          "type": "address"
        },
        {
          "internalType": "uint256",
          "name": "tokenId",
          "type": "uint256"
        }
      ],
      "name": "transferFrom",
      "outputs": [],
      "stateMutability": "nonpayable",
      "type": "function"
    },
    {
      "inputs": [
        {
          "internalType": "address",
          "name": "receiver",
          "type": "address"
        },
        {
          "internalType": "string",
          "name": "metadata",
          "type": "string"
        }
      ],
      "name": "createNFT",
      "outputs": [
        {
          "internalType": "uint32",
          "name": "",
          "type": "uint32"
        }
      ],
      "stateMutability": "nonpayable",
      "type": "function"
    },
    {
      "inputs": [
        {
          "internalType": "address",
          "name": "sender",
          "type": "address"
        },
        {
          "internalType": "address",
          "name": "receiver",
          "type": "address"
        },
        {
          "internalType": "uint32",
          "name": "transId",
          "type": "uint32"
        },
        {
          "internalType": "string",
          "name": "metadata",
          "type": "string"
        }
      ],
      "name": "transferNFT",
      "outputs": [],
      "stateMutability": "nonpayable",
      "type": "function"
    }
  ],
  "bytecode": "0x60806040526040518060400160405280600c81526020017f436f6e646f7320546f6b656e00000000000000000000000000000000000000008152506040518060400160405280600581526020017f434f4e444f000000000000000000000000000000000000000000000000000000815250816000908051906020019062000088929190620000cc565b508060019080519060200190620000a1929190620000cc565b5050506000600760006101000a81548163ffffffff021916908363ffffffff160217905550620001e1565b828054620000da90620001ab565b90600052602060002090601f016020900481019282620000fe57600085556200014a565b82601f106200011957805160ff19168380011785556200014a565b828001600101855582156200014a579182015b82811115620001495782518255916020019190600101906200012c565b5b5090506200015991906200015d565b5090565b5b80821115620001785760008160009055506001016200015e565b5090565b7f4e487b7100000000000000000000000000000000000000000000000000000000600052602260045260246000fd5b60006002820490506001821680620001c457607f821691505b60208210811415620001db57620001da6200017c565b5b50919050565b612f9d80620001f16000396000f3fe608060405234801561001057600080fd5b506004361061011b5760003560e01c80636352211e116100b2578063a561403311610081578063c87b56dd11610066578063c87b56dd14610326578063e985e9c514610356578063fede6c29146103865761011b565b8063a5614033146102da578063b88d4fde1461030a5761011b565b80636352211e1461024057806370a082311461027057806395d89b41146102a0578063a22cb465146102be5761011b565b806323b872dd116100ee57806323b872dd146101ba57806339a090c9146101d657806342842e0e146101f4578063461623ff146102105761011b565b806301ffc9a71461012057806306fdde0314610150578063081812fc1461016e578063095ea7b31461019e575b600080fd5b61013a60048036038101906101359190611c21565b6103a2565b6040516101479190611c69565b60405180910390f35b610158610484565b6040516101659190611d1d565b60405180910390f35b61018860048036038101906101839190611d75565b610516565b6040516101959190611de3565b60405180910390f35b6101b860048036038101906101b39190611e2a565b61059b565b005b6101d460048036038101906101cf9190611e6a565b6106b3565b005b6101de610713565b6040516101eb9190611edc565b60405180910390f35b61020e60048036038101906102099190611e6a565b610729565b005b61022a60048036038101906102259190611ef7565b610749565b6040516102379190611edc565b60405180910390f35b61025a60048036038101906102559190611d75565b61076c565b6040516102679190611de3565b60405180910390f35b61028a60048036038101906102859190611ef7565b61081e565b6040516102979190611f33565b60405180910390f35b6102a86108d6565b6040516102b59190611d1d565b60405180910390f35b6102d860048036038101906102d39190611f7a565b610968565b005b6102f460048036038101906102ef919061201f565b61097e565b6040516103019190611edc565b60405180910390f35b610324600480360381019061031f91906121af565b610ad5565b005b610340600480360381019061033b9190611d75565b610b37565b60405161034d9190611d1d565b60405180910390f35b610370600480360381019061036b9190612232565b610c89565b60405161037d9190611c69565b60405180910390f35b6103a0600480360381019061039b919061229e565b610d1d565b005b60007f80ac58cd000000000000000000000000000000000000000000000000000000007bffffffffffffffffffffffffffffffffffffffffffffffffffffffff1916827bffffffffffffffffffffffffffffffffffffffffffffffffffffffff1916148061046d57507f5b5e139f000000000000000000000000000000000000000000000000000000007bffffffffffffffffffffffffffffffffffffffffffffffffffffffff1916827bffffffffffffffffffffffffffffffffffffffffffffffffffffffff1916145b8061047d575061047c82610e4b565b5b9050919050565b60606000805461049390612355565b80601f01602080910402602001604051908101604052809291908181526020018280546104bf90612355565b801561050c5780601f106104e15761010080835404028352916020019161050c565b820191906000526020600020905b8154815290600101906020018083116104ef57829003601f168201915b5050505050905090565b600061052182610eb5565b610560576040517f08c379a0000000000000000000000000000000000000000000000000000000008152600401610557906123f9565b60405180910390fd5b6004600083815260200190815260200160002060009054906101000a900473ffffffffffffffffffffffffffffffffffffffff169050919050565b60006105a68261076c565b90508073ffffffffffffffffffffffffffffffffffffffff168373ffffffffffffffffffffffffffffffffffffffff161415610617576040517f08c379a000000000000000000000000000000000000000000000000000000000815260040161060e9061248b565b60405180910390fd5b8073ffffffffffffffffffffffffffffffffffffffff16610636610f21565b73ffffffffffffffffffffffffffffffffffffffff16148061066557506106648161065f610f21565b610c89565b5b6106a4576040517f08c379a000000000000000000000000000000000000000000000000000000000815260040161069b9061251d565b60405180910390fd5b6106ae8383610f29565b505050565b6106c46106be610f21565b82610fe2565b610703576040517f08c379a00000000000000000000000000000000000000000000000000000000081526004016106fa906125af565b60405180910390fd5b61070e8383836110c0565b505050565b600760009054906101000a900463ffffffff1681565b61074483838360405180602001604052806000815250610ad5565b505050565b60086020528060005260406000206000915054906101000a900463ffffffff1681565b6000806002600084815260200190815260200160002060009054906101000a900473ffffffffffffffffffffffffffffffffffffffff169050600073ffffffffffffffffffffffffffffffffffffffff168173ffffffffffffffffffffffffffffffffffffffff161415610815576040517f08c379a000000000000000000000000000000000000000000000000000000000815260040161080c90612641565b60405180910390fd5b80915050919050565b60008073ffffffffffffffffffffffffffffffffffffffff168273ffffffffffffffffffffffffffffffffffffffff16141561088f576040517f08c379a0000000000000000000000000000000000000000000000000000000008152600401610886906126d3565b60405180910390fd5b600360008373ffffffffffffffffffffffffffffffffffffffff1673ffffffffffffffffffffffffffffffffffffffff168152602001908152602001600020549050919050565b6060600180546108e590612355565b80601f016020809104026020016040519081016040528092919081815260200182805461091190612355565b801561095e5780601f106109335761010080835404028352916020019161095e565b820191906000526020600020905b81548152906001019060200180831161094157829003601f168201915b5050505050905090565b61097a610973610f21565b8383611327565b5050565b60006007600081819054906101000a900463ffffffff16809291906109a290612722565b91906101000a81548163ffffffff021916908363ffffffff160217905550506109e384600760009054906101000a900463ffffffff1663ffffffff16611494565b610a49600760009054906101000a900463ffffffff1663ffffffff1684848080601f016020809104026020016040519081016040528093929190818152602001838380828437600081840152601f19601f8201169050808301925050505050505061166e565b600760009054906101000a900463ffffffff16600860008673ffffffffffffffffffffffffffffffffffffffff1673ffffffffffffffffffffffffffffffffffffffff16815260200190815260200160002060006101000a81548163ffffffff021916908363ffffffff160217905550600760009054906101000a900463ffffffff1690509392505050565b610ae6610ae0610f21565b83610fe2565b610b25576040517f08c379a0000000000000000000000000000000000000000000000000000000008152600401610b1c906125af565b60405180910390fd5b610b31848484846116e2565b50505050565b6060610b4282610eb5565b610b81576040517f08c379a0000000000000000000000000000000000000000000000000000000008152600401610b78906127c1565b60405180910390fd5b6000600660008481526020019081526020016000208054610ba190612355565b80601f0160208091040260200160405190810160405280929190818152602001828054610bcd90612355565b8015610c1a5780601f10610bef57610100808354040283529160200191610c1a565b820191906000526020600020905b815481529060010190602001808311610bfd57829003601f168201915b505050505090506000610c2b61173e565b9050600081511415610c41578192505050610c84565b600082511115610c76578082604051602001610c5e92919061281d565b60405160208183030381529060405292505050610c84565b610c7f84611755565b925050505b919050565b6000600560008473ffffffffffffffffffffffffffffffffffffffff1673ffffffffffffffffffffffffffffffffffffffff16815260200190815260200160002060008373ffffffffffffffffffffffffffffffffffffffff1673ffffffffffffffffffffffffffffffffffffffff16815260200190815260200160002060009054906101000a900460ff16905092915050565b610d2e85858563ffffffff166106b3565b610d828363ffffffff1683838080601f016020809104026020016040519081016040528093929190818152602001838380828437600081840152601f19601f8201169050808301925050505050505061166e565b600860008673ffffffffffffffffffffffffffffffffffffffff1673ffffffffffffffffffffffffffffffffffffffff16815260200190815260200160002060006101000a81549063ffffffff0219169055600760009054906101000a900463ffffffff16600860008673ffffffffffffffffffffffffffffffffffffffff1673ffffffffffffffffffffffffffffffffffffffff16815260200190815260200160002060006101000a81548163ffffffff021916908363ffffffff1602179055505050505050565b60007f01ffc9a7000000000000000000000000000000000000000000000000000000007bffffffffffffffffffffffffffffffffffffffffffffffffffffffff1916827bffffffffffffffffffffffffffffffffffffffffffffffffffffffff1916149050919050565b60008073ffffffffffffffffffffffffffffffffffffffff166002600084815260200190815260200160002060009054906101000a900473ffffffffffffffffffffffffffffffffffffffff1673ffffffffffffffffffffffffffffffffffffffff1614159050919050565b600033905090565b816004600083815260200190815260200160002060006101000a81548173ffffffffffffffffffffffffffffffffffffffff021916908373ffffffffffffffffffffffffffffffffffffffff160217905550808273ffffffffffffffffffffffffffffffffffffffff16610f9c8361076c565b73ffffffffffffffffffffffffffffffffffffffff167f8c5be1e5ebec7d5bd14f71427d1e84f3dd0314c0f7b2291e5b200ac8c7c3b92560405160405180910390a45050565b6000610fed82610eb5565b61102c576040517f08c379a0000000000000000000000000000000000000000000000000000000008152600401611023906128b3565b60405180910390fd5b60006110378361076c565b90508073ffffffffffffffffffffffffffffffffffffffff168473ffffffffffffffffffffffffffffffffffffffff1614806110a657508373ffffffffffffffffffffffffffffffffffffffff1661108e84610516565b73ffffffffffffffffffffffffffffffffffffffff16145b806110b757506110b68185610c89565b5b91505092915050565b8273ffffffffffffffffffffffffffffffffffffffff166110e08261076c565b73ffffffffffffffffffffffffffffffffffffffff1614611136576040517f08c379a000000000000000000000000000000000000000000000000000000000815260040161112d90612945565b60405180910390fd5b600073ffffffffffffffffffffffffffffffffffffffff168273ffffffffffffffffffffffffffffffffffffffff1614156111a6576040517f08c379a000000000000000000000000000000000000000000000000000000000815260040161119d906129d7565b60405180910390fd5b6111b18383836117fc565b6111bc600082610f29565b6001600360008573ffffffffffffffffffffffffffffffffffffffff1673ffffffffffffffffffffffffffffffffffffffff168152602001908152602001600020600082825461120c91906129f7565b925050819055506001600360008473ffffffffffffffffffffffffffffffffffffffff1673ffffffffffffffffffffffffffffffffffffffff16815260200190815260200160002060008282546112639190612a2b565b92505081905550816002600083815260200190815260200160002060006101000a81548173ffffffffffffffffffffffffffffffffffffffff021916908373ffffffffffffffffffffffffffffffffffffffff160217905550808273ffffffffffffffffffffffffffffffffffffffff168473ffffffffffffffffffffffffffffffffffffffff167fddf252ad1be2c89b69c2b068fc378daa952ba7f163c4a11628f55a4df523b3ef60405160405180910390a4611322838383611801565b505050565b8173ffffffffffffffffffffffffffffffffffffffff168373ffffffffffffffffffffffffffffffffffffffff161415611396576040517f08c379a000000000000000000000000000000000000000000000000000000000815260040161138d90612acd565b60405180910390fd5b80600560008573ffffffffffffffffffffffffffffffffffffffff1673ffffffffffffffffffffffffffffffffffffffff16815260200190815260200160002060008473ffffffffffffffffffffffffffffffffffffffff1673ffffffffffffffffffffffffffffffffffffffff16815260200190815260200160002060006101000a81548160ff0219169083151502179055508173ffffffffffffffffffffffffffffffffffffffff168373ffffffffffffffffffffffffffffffffffffffff167f17307eab39ab6107e8899845ad3d59bd9653f200f220920489ca2b5937696c31836040516114879190611c69565b60405180910390a3505050565b600073ffffffffffffffffffffffffffffffffffffffff168273ffffffffffffffffffffffffffffffffffffffff161415611504576040517f08c379a00000000000000000000000000000000000000000000000000000000081526004016114fb90612b39565b60405180910390fd5b61150d81610eb5565b1561154d576040517f08c379a000000000000000000000000000000000000000000000000000000000815260040161154490612ba5565b60405180910390fd5b611559600083836117fc565b6001600360008473ffffffffffffffffffffffffffffffffffffffff1673ffffffffffffffffffffffffffffffffffffffff16815260200190815260200160002060008282546115a99190612a2b565b92505081905550816002600083815260200190815260200160002060006101000a81548173ffffffffffffffffffffffffffffffffffffffff021916908373ffffffffffffffffffffffffffffffffffffffff160217905550808273ffffffffffffffffffffffffffffffffffffffff16600073ffffffffffffffffffffffffffffffffffffffff167fddf252ad1be2c89b69c2b068fc378daa952ba7f163c4a11628f55a4df523b3ef60405160405180910390a461166a60008383611801565b5050565b61167782610eb5565b6116b6576040517f08c379a00000000000000000000000000000000000000000000000000000000081526004016116ad90612c37565b60405180910390fd5b806006600084815260200190815260200160002090805190602001906116dd929190611b12565b505050565b6116ed8484846110c0565b6116f984848484611806565b611738576040517f08c379a000000000000000000000000000000000000000000000000000000000815260040161172f90612cc9565b60405180910390fd5b50505050565b606060405180602001604052806000815250905090565b606061176082610eb5565b61179f576040517f08c379a000000000000000000000000000000000000000000000000000000000815260040161179690612d5b565b60405180910390fd5b60006117a961173e565b905060008151116117c957604051806020016040528060008152506117f4565b806117d38461198e565b6040516020016117e492919061281d565b6040516020818303038152906040525b915050919050565b505050565b505050565b60006118278473ffffffffffffffffffffffffffffffffffffffff16611aef565b15611981578373ffffffffffffffffffffffffffffffffffffffff1663150b7a02611850610f21565b8786866040518563ffffffff1660e01b81526004016118729493929190612dd0565b6020604051808303816000875af19250505080156118ae57506040513d601f19601f820116820180604052508101906118ab9190612e31565b60015b611931573d80600081146118de576040519150601f19603f3d011682016040523d82523d6000602084013e6118e3565b606091505b50600081511415611929576040517f08c379a000000000000000000000000000000000000000000000000000000000815260040161192090612cc9565b60405180910390fd5b805181602001fd5b63150b7a0260e01b7bffffffffffffffffffffffffffffffffffffffffffffffffffffffff1916817bffffffffffffffffffffffffffffffffffffffffffffffffffffffff191614915050611986565b600190505b949350505050565b606060008214156119d6576040518060400160405280600181526020017f30000000000000000000000000000000000000000000000000000000000000008152509050611aea565b600082905060005b60008214611a085780806119f190612e5e565b915050600a82611a019190612ed6565b91506119de565b60008167ffffffffffffffff811115611a2457611a23612084565b5b6040519080825280601f01601f191660200182016040528015611a565781602001600182028036833780820191505090505b5090505b60008514611ae357600182611a6f91906129f7565b9150600a85611a7e9190612f07565b6030611a8a9190612a2b565b60f81b818381518110611aa057611a9f612f38565b5b60200101907effffffffffffffffffffffffffffffffffffffffffffffffffffffffffffff1916908160001a905350600a85611adc9190612ed6565b9450611a5a565b8093505050505b919050565b6000808273ffffffffffffffffffffffffffffffffffffffff163b119050919050565b828054611b1e90612355565b90600052602060002090601f016020900481019282611b405760008555611b87565b82601f10611b5957805160ff1916838001178555611b87565b82800160010185558215611b87579182015b82811115611b86578251825591602001919060010190611b6b565b5b509050611b949190611b98565b5090565b5b80821115611bb1576000816000905550600101611b99565b5090565b6000604051905090565b600080fd5b600080fd5b60007fffffffff0000000000000000000000000000000000000000000000000000000082169050919050565b611bfe81611bc9565b8114611c0957600080fd5b50565b600081359050611c1b81611bf5565b92915050565b600060208284031215611c3757611c36611bbf565b5b6000611c4584828501611c0c565b91505092915050565b60008115159050919050565b611c6381611c4e565b82525050565b6000602082019050611c7e6000830184611c5a565b92915050565b600081519050919050565b600082825260208201905092915050565b60005b83811015611cbe578082015181840152602081019050611ca3565b83811115611ccd576000848401525b50505050565b6000601f19601f8301169050919050565b6000611cef82611c84565b611cf98185611c8f565b9350611d09818560208601611ca0565b611d1281611cd3565b840191505092915050565b60006020820190508181036000830152611d378184611ce4565b905092915050565b6000819050919050565b611d5281611d3f565b8114611d5d57600080fd5b50565b600081359050611d6f81611d49565b92915050565b600060208284031215611d8b57611d8a611bbf565b5b6000611d9984828501611d60565b91505092915050565b600073ffffffffffffffffffffffffffffffffffffffff82169050919050565b6000611dcd82611da2565b9050919050565b611ddd81611dc2565b82525050565b6000602082019050611df86000830184611dd4565b92915050565b611e0781611dc2565b8114611e1257600080fd5b50565b600081359050611e2481611dfe565b92915050565b60008060408385031215611e4157611e40611bbf565b5b6000611e4f85828601611e15565b9250506020611e6085828601611d60565b9150509250929050565b600080600060608486031215611e8357611e82611bbf565b5b6000611e9186828701611e15565b9350506020611ea286828701611e15565b9250506040611eb386828701611d60565b9150509250925092565b600063ffffffff82169050919050565b611ed681611ebd565b82525050565b6000602082019050611ef16000830184611ecd565b92915050565b600060208284031215611f0d57611f0c611bbf565b5b6000611f1b84828501611e15565b91505092915050565b611f2d81611d3f565b82525050565b6000602082019050611f486000830184611f24565b92915050565b611f5781611c4e565b8114611f6257600080fd5b50565b600081359050611f7481611f4e565b92915050565b60008060408385031215611f9157611f90611bbf565b5b6000611f9f85828601611e15565b9250506020611fb085828601611f65565b9150509250929050565b600080fd5b600080fd5b600080fd5b60008083601f840112611fdf57611fde611fba565b5b8235905067ffffffffffffffff811115611ffc57611ffb611fbf565b5b60208301915083600182028301111561201857612017611fc4565b5b9250929050565b60008060006040848603121561203857612037611bbf565b5b600061204686828701611e15565b935050602084013567ffffffffffffffff81111561206757612066611bc4565b5b61207386828701611fc9565b92509250509250925092565b600080fd5b7f4e487b7100000000000000000000000000000000000000000000000000000000600052604160045260246000fd5b6120bc82611cd3565b810181811067ffffffffffffffff821117156120db576120da612084565b5b80604052505050565b60006120ee611bb5565b90506120fa82826120b3565b919050565b600067ffffffffffffffff82111561211a57612119612084565b5b61212382611cd3565b9050602081019050919050565b82818337600083830152505050565b600061215261214d846120ff565b6120e4565b90508281526020810184848401111561216e5761216d61207f565b5b612179848285612130565b509392505050565b600082601f83011261219657612195611fba565b5b81356121a684826020860161213f565b91505092915050565b600080600080608085870312156121c9576121c8611bbf565b5b60006121d787828801611e15565b94505060206121e887828801611e15565b93505060406121f987828801611d60565b925050606085013567ffffffffffffffff81111561221a57612219611bc4565b5b61222687828801612181565b91505092959194509250565b6000806040838503121561224957612248611bbf565b5b600061225785828601611e15565b925050602061226885828601611e15565b9150509250929050565b61227b81611ebd565b811461228657600080fd5b50565b60008135905061229881612272565b92915050565b6000806000806000608086880312156122ba576122b9611bbf565b5b60006122c888828901611e15565b95505060206122d988828901611e15565b94505060406122ea88828901612289565b935050606086013567ffffffffffffffff81111561230b5761230a611bc4565b5b61231788828901611fc9565b92509250509295509295909350565b7f4e487b7100000000000000000000000000000000000000000000000000000000600052602260045260246000fd5b6000600282049050600182168061236d57607f821691505b6020821081141561238157612380612326565b5b50919050565b7f4552433732313a20617070726f76656420717565727920666f72206e6f6e657860008201527f697374656e7420746f6b656e0000000000000000000000000000000000000000602082015250565b60006123e3602c83611c8f565b91506123ee82612387565b604082019050919050565b60006020820190508181036000830152612412816123d6565b9050919050565b7f4552433732313a20617070726f76616c20746f2063757272656e74206f776e6560008201527f7200000000000000000000000000000000000000000000000000000000000000602082015250565b6000612475602183611c8f565b915061248082612419565b604082019050919050565b600060208201905081810360008301526124a481612468565b9050919050565b7f4552433732313a20617070726f76652063616c6c6572206973206e6f74206f7760008201527f6e6572206e6f7220617070726f76656420666f7220616c6c0000000000000000602082015250565b6000612507603883611c8f565b9150612512826124ab565b604082019050919050565b60006020820190508181036000830152612536816124fa565b9050919050565b7f4552433732313a207472616e736665722063616c6c6572206973206e6f74206f60008201527f776e6572206e6f7220617070726f766564000000000000000000000000000000602082015250565b6000612599603183611c8f565b91506125a48261253d565b604082019050919050565b600060208201905081810360008301526125c88161258c565b9050919050565b7f4552433732313a206f776e657220717565727920666f72206e6f6e657869737460008201527f656e7420746f6b656e0000000000000000000000000000000000000000000000602082015250565b600061262b602983611c8f565b9150612636826125cf565b604082019050919050565b6000602082019050818103600083015261265a8161261e565b9050919050565b7f4552433732313a2062616c616e636520717565727920666f7220746865207a6560008201527f726f206164647265737300000000000000000000000000000000000000000000602082015250565b60006126bd602a83611c8f565b91506126c882612661565b604082019050919050565b600060208201905081810360008301526126ec816126b0565b9050919050565b7f4e487b7100000000000000000000000000000000000000000000000000000000600052601160045260246000fd5b600061272d82611ebd565b915063ffffffff821415612744576127436126f3565b5b600182019050919050565b7f45524337323155524953746f726167653a2055524920717565727920666f722060008201527f6e6f6e6578697374656e7420746f6b656e000000000000000000000000000000602082015250565b60006127ab603183611c8f565b91506127b68261274f565b604082019050919050565b600060208201905081810360008301526127da8161279e565b9050919050565b600081905092915050565b60006127f782611c84565b61280181856127e1565b9350612811818560208601611ca0565b80840191505092915050565b600061282982856127ec565b915061283582846127ec565b91508190509392505050565b7f4552433732313a206f70657261746f7220717565727920666f72206e6f6e657860008201527f697374656e7420746f6b656e0000000000000000000000000000000000000000602082015250565b600061289d602c83611c8f565b91506128a882612841565b604082019050919050565b600060208201905081810360008301526128cc81612890565b9050919050565b7f4552433732313a207472616e736665722066726f6d20696e636f72726563742060008201527f6f776e6572000000000000000000000000000000000000000000000000000000602082015250565b600061292f602583611c8f565b915061293a826128d3565b604082019050919050565b6000602082019050818103600083015261295e81612922565b9050919050565b7f4552433732313a207472616e7366657220746f20746865207a65726f2061646460008201527f7265737300000000000000000000000000000000000000000000000000000000602082015250565b60006129c1602483611c8f565b91506129cc82612965565b604082019050919050565b600060208201905081810360008301526129f0816129b4565b9050919050565b6000612a0282611d3f565b9150612a0d83611d3f565b925082821015612a2057612a1f6126f3565b5b828203905092915050565b6000612a3682611d3f565b9150612a4183611d3f565b9250827fffffffffffffffffffffffffffffffffffffffffffffffffffffffffffffffff03821115612a7657612a756126f3565b5b828201905092915050565b7f4552433732313a20617070726f766520746f2063616c6c657200000000000000600082015250565b6000612ab7601983611c8f565b9150612ac282612a81565b602082019050919050565b60006020820190508181036000830152612ae681612aaa565b9050919050565b7f4552433732313a206d696e7420746f20746865207a65726f2061646472657373600082015250565b6000612b23602083611c8f565b9150612b2e82612aed565b602082019050919050565b60006020820190508181036000830152612b5281612b16565b9050919050565b7f4552433732313a20746f6b656e20616c7265616479206d696e74656400000000600082015250565b6000612b8f601c83611c8f565b9150612b9a82612b59565b602082019050919050565b60006020820190508181036000830152612bbe81612b82565b9050919050565b7f45524337323155524953746f726167653a2055524920736574206f66206e6f6e60008201527f6578697374656e7420746f6b656e000000000000000000000000000000000000602082015250565b6000612c21602e83611c8f565b9150612c2c82612bc5565b604082019050919050565b60006020820190508181036000830152612c5081612c14565b9050919050565b7f4552433732313a207472616e7366657220746f206e6f6e20455243373231526560008201527f63656976657220696d706c656d656e7465720000000000000000000000000000602082015250565b6000612cb3603283611c8f565b9150612cbe82612c57565b604082019050919050565b60006020820190508181036000830152612ce281612ca6565b9050919050565b7f4552433732314d657461646174613a2055524920717565727920666f72206e6f60008201527f6e6578697374656e7420746f6b656e0000000000000000000000000000000000602082015250565b6000612d45602f83611c8f565b9150612d5082612ce9565b604082019050919050565b60006020820190508181036000830152612d7481612d38565b9050919050565b600081519050919050565b600082825260208201905092915050565b6000612da282612d7b565b612dac8185612d86565b9350612dbc818560208601611ca0565b612dc581611cd3565b840191505092915050565b6000608082019050612de56000830187611dd4565b612df26020830186611dd4565b612dff6040830185611f24565b8181036060830152612e118184612d97565b905095945050505050565b600081519050612e2b81611bf5565b92915050565b600060208284031215612e4757612e46611bbf565b5b6000612e5584828501612e1c565b91505092915050565b6000612e6982611d3f565b91507fffffffffffffffffffffffffffffffffffffffffffffffffffffffffffffffff821415612e9c57612e9b6126f3565b5b600182019050919050565b7f4e487b7100000000000000000000000000000000000000000000000000000000600052601260045260246000fd5b6000612ee182611d3f565b9150612eec83611d3f565b925082612efc57612efb612ea7565b5b828204905092915050565b6000612f1282611d3f565b9150612f1d83611d3f565b925082612f2d57612f2c612ea7565b5b828206905092915050565b7f4e487b7100000000000000000000000000000000000000000000000000000000600052603260045260246000fdfea2646970667358221220f086f7f7b307d8076a988c4daeaedb5e014847cb359d6a8f1cc8a12aebd7488d64736f6c634300080b0033",
  "immutableReferences": {},
  "source": "// SPDX-License-Identifier: GPL-3.0\n\npragma solidity >=0.7.0 <0.9.0;\n\n// import \"@openzeppelin/contracts/token/ERC721/ERC721.sol\";\nimport \"@openzeppelin/contracts/token/ERC721/extensions/ERC721URIStorage.sol\";\n\ncontract Condos is ERC721URIStorage {\n    // Id holds the value of the last/latest token issued by our contract.\n    uint32 public Id;\n    \n    // Maps each token ID to the Ethereum address that holds that token. \n    mapping(address => uint32)\n    public MDTrack;\n\n    constructor() ERC721(\"Condos Token\", \"CONDO\") payable {\n        Id = 0;\n    }\n\n    function createNFT(address receiver, string calldata metadata) external returns (uint32) {\n        Id++;\n        _mint(receiver, Id);\n        _setTokenURI(Id, metadata);\n        MDTrack[receiver] = Id;\n        return Id;\n    }\n\n    function transferNFT(address sender, address receiver, uint32 transId, string calldata metadata) external {\n        transferFrom(sender, receiver, transId);\n        _setTokenURI(transId, metadata);\n        delete MDTrack[sender];\n        MDTrack[receiver] = Id;\n    }\n}",
  "sourcePath": "/Users/josefinelantz/Documents/projects/tokenwallet/contracts/Condos.sol",
  "compiler": {
    "name": "solc",
    "version": "0.8.11+commit.d7f03943.Emscripten.clang"
  },
  "schemaVersion": "3.4.4",
  "updatedAt": "2022-02-22T06:52:38.683Z",
  "networkType": "ethereum",
  "devdoc": {
    "kind": "dev",
    "methods": {
      "approve(address,uint256)": {
        "details": "See {IERC721-approve}."
      },
      "balanceOf(address)": {
        "details": "See {IERC721-balanceOf}."
      },
      "getApproved(uint256)": {
        "details": "See {IERC721-getApproved}."
      },
      "isApprovedForAll(address,address)": {
        "details": "See {IERC721-isApprovedForAll}."
      },
      "name()": {
        "details": "See {IERC721Metadata-name}."
      },
      "ownerOf(uint256)": {
        "details": "See {IERC721-ownerOf}."
      },
      "safeTransferFrom(address,address,uint256)": {
        "details": "See {IERC721-safeTransferFrom}."
      },
      "safeTransferFrom(address,address,uint256,bytes)": {
        "details": "See {IERC721-safeTransferFrom}."
      },
      "setApprovalForAll(address,bool)": {
        "details": "See {IERC721-setApprovalForAll}."
      },
      "supportsInterface(bytes4)": {
        "details": "See {IERC165-supportsInterface}."
      },
      "symbol()": {
        "details": "See {IERC721Metadata-symbol}."
      },
      "tokenURI(uint256)": {
        "details": "See {IERC721Metadata-tokenURI}."
      },
      "transferFrom(address,address,uint256)": {
        "details": "See {IERC721-transferFrom}."
      }
    },
    "version": 1
  },
  "userdoc": {
    "kind": "user",
    "methods": {},
    "version": 1
  }
}