{
  "contractName": "Condos",
  "abi": [
    {
      "inputs": [],
      "stateMutability": "payable",
      "type": "constructor",
      "payable": true
    },
    {
      "anonymous": false,
      "inputs": [
        {
          "indexed": true,
          "internalType": "address",
          "name": "owner",
          "type": "address"
        },
        {
          "indexed": true,
          "internalType": "address",
          "name": "approved",
          "type": "address"
        },
        {
          "indexed": true,
          "internalType": "uint256",
          "name": "tokenId",
          "type": "uint256"
        }
      ],
      "name": "Approval",
      "type": "event"
    },
    {
      "anonymous": false,
      "inputs": [
        {
          "indexed": true,
          "internalType": "address",
          "name": "owner",
          "type": "address"
        },
        {
          "indexed": true,
          "internalType": "address",
          "name": "operator",
          "type": "address"
        },
        {
          "indexed": false,
          "internalType": "bool",
          "name": "approved",
          "type": "bool"
        }
      ],
      "name": "ApprovalForAll",
      "type": "event"
    },
    {
      "anonymous": false,
      "inputs": [
        {
          "indexed": true,
          "internalType": "address",
          "name": "from",
          "type": "address"
        },
        {
          "indexed": true,
          "internalType": "address",
          "name": "to",
          "type": "address"
        },
        {
          "indexed": true,
          "internalType": "uint256",
          "name": "tokenId",
          "type": "uint256"
        }
      ],
      "name": "Transfer",
      "type": "event"
    },
    {
      "inputs": [],
      "name": "Id",
      "outputs": [
        {
          "internalType": "uint32",
          "name": "",
          "type": "uint32"
        }
      ],
      "stateMutability": "view",
      "type": "function",
      "constant": true
    },
    {
      "inputs": [
        {
          "internalType": "address",
          "name": "",
          "type": "address"
        }
      ],
      "name": "MDTrack",
      "outputs": [
        {
          "internalType": "uint32",
          "name": "",
          "type": "uint32"
        }
      ],
      "stateMutability": "view",
      "type": "function",
      "constant": true
    },
    {
      "inputs": [
        {
          "internalType": "address",
          "name": "to",
          "type": "address"
        },
        {
          "internalType": "uint256",
          "name": "tokenId",
          "type": "uint256"
        }
      ],
      "name": "approve",
      "outputs": [],
      "stateMutability": "nonpayable",
      "type": "function"
    },
    {
      "inputs": [
        {
          "internalType": "address",
          "name": "owner",
          "type": "address"
        }
      ],
      "name": "balanceOf",
      "outputs": [
        {
          "internalType": "uint256",
          "name": "",
          "type": "uint256"
        }
      ],
      "stateMutability": "view",
      "type": "function",
      "constant": true
    },
    {
      "inputs": [
        {
          "internalType": "uint256",
          "name": "tokenId",
          "type": "uint256"
        }
      ],
      "name": "getApproved",
      "outputs": [
        {
          "internalType": "address",
          "name": "",
          "type": "address"
        }
      ],
      "stateMutability": "view",
      "type": "function",
      "constant": true
    },
    {
      "inputs": [
        {
          "internalType": "address",
          "name": "owner",
          "type": "address"
        },
        {
          "internalType": "address",
          "name": "operator",
          "type": "address"
        }
      ],
      "name": "isApprovedForAll",
      "outputs": [
        {
          "internalType": "bool",
          "name": "",
          "type": "bool"
        }
      ],
      "stateMutability": "view",
      "type": "function",
      "constant": true
    },
    {
      "inputs": [],
      "name": "name",
      "outputs": [
        {
          "internalType": "string",
          "name": "",
          "type": "string"
        }
      ],
      "stateMutability": "view",
      "type": "function",
      "constant": true
    },
    {
      "inputs": [
        {
          "internalType": "uint256",
          "name": "tokenId",
          "type": "uint256"
        }
      ],
      "name": "ownerOf",
      "outputs": [
        {
          "internalType": "address",
          "name": "",
          "type": "address"
        }
      ],
      "stateMutability": "view",
      "type": "function",
      "constant": true
    },
    {
      "inputs": [
        {
          "internalType": "address",
          "name": "from",
          "type": "address"
        },
        {
          "internalType": "address",
          "name": "to",
          "type": "address"
        },
        {
          "internalType": "uint256",
          "name": "tokenId",
          "type": "uint256"
        }
      ],
      "name": "safeTransferFrom",
      "outputs": [],
      "stateMutability": "nonpayable",
      "type": "function"
    },
    {
      "inputs": [
        {
          "internalType": "address",
          "name": "from",
          "type": "address"
        },
        {
          "internalType": "address",
          "name": "to",
          "type": "address"
        },
        {
          "internalType": "uint256",
          "name": "tokenId",
          "type": "uint256"
        },
        {
          "internalType": "bytes",
          "name": "_data",
          "type": "bytes"
        }
      ],
      "name": "safeTransferFrom",
      "outputs": [],
      "stateMutability": "nonpayable",
      "type": "function"
    },
    {
      "inputs": [
        {
          "internalType": "address",
          "name": "operator",
          "type": "address"
        },
        {
          "internalType": "bool",
          "name": "approved",
          "type": "bool"
        }
      ],
      "name": "setApprovalForAll",
      "outputs": [],
      "stateMutability": "nonpayable",
      "type": "function"
    },
    {
      "inputs": [
        {
          "internalType": "bytes4",
          "name": "interfaceId",
          "type": "bytes4"
        }
      ],
      "name": "supportsInterface",
      "outputs": [
        {
          "internalType": "bool",
          "name": "",
          "type": "bool"
        }
      ],
      "stateMutability": "view",
      "type": "function",
      "constant": true
    },
    {
      "inputs": [],
      "name": "symbol",
      "outputs": [
        {
          "internalType": "string",
          "name": "",
          "type": "string"
        }
      ],
      "stateMutability": "view",
      "type": "function",
      "constant": true
    },
    {
      "inputs": [
        {
          "internalType": "uint256",
          "name": "tokenId",
          "type": "uint256"
        }
      ],
      "name": "tokenURI",
      "outputs": [
        {
          "internalType": "string",
          "name": "",
          "type": "string"
        }
      ],
      "stateMutability": "view",
      "type": "function",
      "constant": true
    },
    {
      "inputs": [
        {
          "internalType": "address",
          "name": "from",
          "type": "address"
        },
        {
          "internalType": "address",
          "name": "to",
          "type": "address"
        },
        {
          "internalType": "uint256",
          "name": "tokenId",
          "type": "uint256"
        }
      ],
      "name": "transferFrom",
      "outputs": [],
      "stateMutability": "nonpayable",
      "type": "function"
    },
    {
      "inputs": [
        {
          "internalType": "address",
          "name": "receiver",
          "type": "address"
        }
      ],
      "name": "createNFT",
      "outputs": [
        {
          "internalType": "uint32",
          "name": "",
          "type": "uint32"
        }
      ],
      "stateMutability": "nonpayable",
      "type": "function"
    },
    {
      "inputs": [
        {
          "internalType": "address",
          "name": "sender",
          "type": "address"
        },
        {
          "internalType": "address",
          "name": "receiver",
          "type": "address"
        },
        {
          "internalType": "uint32",
          "name": "transId",
          "type": "uint32"
        }
      ],
      "name": "transferNFT",
      "outputs": [],
      "stateMutability": "nonpayable",
      "type": "function"
    }
  ],
  "bytecode": "0x60806040526040518060400160405280600c81526020017f436f6e646f7320546f6b656e00000000000000000000000000000000000000008152506040518060400160405280600581526020017f434f4e444f000000000000000000000000000000000000000000000000000000815250816000908051906020019062000088929190620000cc565b508060019080519060200190620000a1929190620000cc565b5050506000600660006101000a81548163ffffffff021916908363ffffffff160217905550620001e1565b828054620000da90620001ab565b90600052602060002090601f016020900481019282620000fe57600085556200014a565b82601f106200011957805160ff19168380011785556200014a565b828001600101855582156200014a579182015b82811115620001495782518255916020019190600101906200012c565b5b5090506200015991906200015d565b5090565b5b80821115620001785760008160009055506001016200015e565b5090565b7f4e487b7100000000000000000000000000000000000000000000000000000000600052602260045260246000fd5b60006002820490506001821680620001c457607f821691505b60208210811415620001db57620001da6200017c565b5b50919050565b612a6380620001f16000396000f3fe608060405234801561001057600080fd5b506004361061011b5760003560e01c8063461623ff116100b2578063a22cb46511610081578063b88d4fde11610066578063b88d4fde14610326578063c87b56dd14610342578063e985e9c5146103725761011b565b8063a22cb465146102ee578063b28df4951461030a5761011b565b8063461623ff146102405780636352211e1461027057806370a08231146102a057806395d89b41146102d05761011b565b806317e5883c116100ee57806317e5883c146101ba57806323b872dd146101ea57806339a090c91461020657806342842e0e146102245761011b565b806301ffc9a71461012057806306fdde0314610150578063081812fc1461016e578063095ea7b31461019e575b600080fd5b61013a60048036038101906101359190611900565b6103a2565b6040516101479190611948565b60405180910390f35b610158610484565b60405161016591906119fc565b60405180910390f35b61018860048036038101906101839190611a54565b610516565b6040516101959190611ac2565b60405180910390f35b6101b860048036038101906101b39190611b09565b61059b565b005b6101d460048036038101906101cf9190611b49565b6106b3565b6040516101e19190611b95565b60405180910390f35b61020460048036038101906101ff9190611bb0565b6107c4565b005b61020e610824565b60405161021b9190611b95565b60405180910390f35b61023e60048036038101906102399190611bb0565b61083a565b005b61025a60048036038101906102559190611b49565b61085a565b6040516102679190611b95565b60405180910390f35b61028a60048036038101906102859190611a54565b61087d565b6040516102979190611ac2565b60405180910390f35b6102ba60048036038101906102b59190611b49565b61092f565b6040516102c79190611c12565b60405180910390f35b6102d86109e7565b6040516102e591906119fc565b60405180910390f35b61030860048036038101906103039190611c59565b610a79565b005b610324600480360381019061031f9190611cc5565b610a8f565b005b610340600480360381019061033b9190611e4d565b610b77565b005b61035c60048036038101906103579190611a54565b610bd9565b60405161036991906119fc565b60405180910390f35b61038c60048036038101906103879190611ed0565b610c80565b6040516103999190611948565b60405180910390f35b60007f80ac58cd000000000000000000000000000000000000000000000000000000007bffffffffffffffffffffffffffffffffffffffffffffffffffffffff1916827bffffffffffffffffffffffffffffffffffffffffffffffffffffffff1916148061046d57507f5b5e139f000000000000000000000000000000000000000000000000000000007bffffffffffffffffffffffffffffffffffffffffffffffffffffffff1916827bffffffffffffffffffffffffffffffffffffffffffffffffffffffff1916145b8061047d575061047c82610d14565b5b9050919050565b60606000805461049390611f3f565b80601f01602080910402602001604051908101604052809291908181526020018280546104bf90611f3f565b801561050c5780601f106104e15761010080835404028352916020019161050c565b820191906000526020600020905b8154815290600101906020018083116104ef57829003601f168201915b5050505050905090565b600061052182610d7e565b610560576040517f08c379a000000000000000000000000000000000000000000000000000000000815260040161055790611fe3565b60405180910390fd5b6004600083815260200190815260200160002060009054906101000a900473ffffffffffffffffffffffffffffffffffffffff169050919050565b60006105a68261087d565b90508073ffffffffffffffffffffffffffffffffffffffff168373ffffffffffffffffffffffffffffffffffffffff161415610617576040517f08c379a000000000000000000000000000000000000000000000000000000000815260040161060e90612075565b60405180910390fd5b8073ffffffffffffffffffffffffffffffffffffffff16610636610dea565b73ffffffffffffffffffffffffffffffffffffffff16148061066557506106648161065f610dea565b610c80565b5b6106a4576040517f08c379a000000000000000000000000000000000000000000000000000000000815260040161069b90612107565b60405180910390fd5b6106ae8383610df2565b505050565b60006006600081819054906101000a900463ffffffff16809291906106d790612156565b91906101000a81548163ffffffff021916908363ffffffff1602179055505061071882600660009054906101000a900463ffffffff1663ffffffff16610eab565b610739600660009054906101000a900463ffffffff1663ffffffff16610bd9565b50600660009054906101000a900463ffffffff16600760008473ffffffffffffffffffffffffffffffffffffffff1673ffffffffffffffffffffffffffffffffffffffff16815260200190815260200160002060006101000a81548163ffffffff021916908363ffffffff160217905550600660009054906101000a900463ffffffff169050919050565b6107d56107cf610dea565b82611079565b610814576040517f08c379a000000000000000000000000000000000000000000000000000000000815260040161080b906121f5565b60405180910390fd5b61081f838383611157565b505050565b600660009054906101000a900463ffffffff1681565b61085583838360405180602001604052806000815250610b77565b505050565b60076020528060005260406000206000915054906101000a900463ffffffff1681565b6000806002600084815260200190815260200160002060009054906101000a900473ffffffffffffffffffffffffffffffffffffffff169050600073ffffffffffffffffffffffffffffffffffffffff168173ffffffffffffffffffffffffffffffffffffffff161415610926576040517f08c379a000000000000000000000000000000000000000000000000000000000815260040161091d90612287565b60405180910390fd5b80915050919050565b60008073ffffffffffffffffffffffffffffffffffffffff168273ffffffffffffffffffffffffffffffffffffffff1614156109a0576040517f08c379a000000000000000000000000000000000000000000000000000000000815260040161099790612319565b60405180910390fd5b600360008373ffffffffffffffffffffffffffffffffffffffff1673ffffffffffffffffffffffffffffffffffffffff168152602001908152602001600020549050919050565b6060600180546109f690611f3f565b80601f0160208091040260200160405190810160405280929190818152602001828054610a2290611f3f565b8015610a6f5780601f10610a4457610100808354040283529160200191610a6f565b820191906000526020600020905b815481529060010190602001808311610a5257829003601f168201915b5050505050905090565b610a8b610a84610dea565b83836113b3565b5050565b610aa083838363ffffffff166107c4565b610aaf8163ffffffff16610bd9565b50600760008473ffffffffffffffffffffffffffffffffffffffff1673ffffffffffffffffffffffffffffffffffffffff16815260200190815260200160002060006101000a81549063ffffffff0219169055600660009054906101000a900463ffffffff16600760008473ffffffffffffffffffffffffffffffffffffffff1673ffffffffffffffffffffffffffffffffffffffff16815260200190815260200160002060006101000a81548163ffffffff021916908363ffffffff160217905550505050565b610b88610b82610dea565b83611079565b610bc7576040517f08c379a0000000000000000000000000000000000000000000000000000000008152600401610bbe906121f5565b60405180910390fd5b610bd384848484611520565b50505050565b6060610be482610d7e565b610c23576040517f08c379a0000000000000000000000000000000000000000000000000000000008152600401610c1a906123ab565b60405180910390fd5b6000610c2d61157c565b90506000815111610c4d5760405180602001604052806000815250610c78565b80610c5784611593565b604051602001610c68929190612407565b6040516020818303038152906040525b915050919050565b6000600560008473ffffffffffffffffffffffffffffffffffffffff1673ffffffffffffffffffffffffffffffffffffffff16815260200190815260200160002060008373ffffffffffffffffffffffffffffffffffffffff1673ffffffffffffffffffffffffffffffffffffffff16815260200190815260200160002060009054906101000a900460ff16905092915050565b60007f01ffc9a7000000000000000000000000000000000000000000000000000000007bffffffffffffffffffffffffffffffffffffffffffffffffffffffff1916827bffffffffffffffffffffffffffffffffffffffffffffffffffffffff1916149050919050565b60008073ffffffffffffffffffffffffffffffffffffffff166002600084815260200190815260200160002060009054906101000a900473ffffffffffffffffffffffffffffffffffffffff1673ffffffffffffffffffffffffffffffffffffffff1614159050919050565b600033905090565b816004600083815260200190815260200160002060006101000a81548173ffffffffffffffffffffffffffffffffffffffff021916908373ffffffffffffffffffffffffffffffffffffffff160217905550808273ffffffffffffffffffffffffffffffffffffffff16610e658361087d565b73ffffffffffffffffffffffffffffffffffffffff167f8c5be1e5ebec7d5bd14f71427d1e84f3dd0314c0f7b2291e5b200ac8c7c3b92560405160405180910390a45050565b600073ffffffffffffffffffffffffffffffffffffffff168273ffffffffffffffffffffffffffffffffffffffff161415610f1b576040517f08c379a0000000000000000000000000000000000000000000000000000000008152600401610f1290612477565b60405180910390fd5b610f2481610d7e565b15610f64576040517f08c379a0000000000000000000000000000000000000000000000000000000008152600401610f5b906124e3565b60405180910390fd5b610f70600083836116f4565b6001600360008473ffffffffffffffffffffffffffffffffffffffff1673ffffffffffffffffffffffffffffffffffffffff1681526020019081526020016000206000828254610fc09190612503565b92505081905550816002600083815260200190815260200160002060006101000a81548173ffffffffffffffffffffffffffffffffffffffff021916908373ffffffffffffffffffffffffffffffffffffffff160217905550808273ffffffffffffffffffffffffffffffffffffffff16600073ffffffffffffffffffffffffffffffffffffffff167fddf252ad1be2c89b69c2b068fc378daa952ba7f163c4a11628f55a4df523b3ef60405160405180910390a45050565b600061108482610d7e565b6110c3576040517f08c379a00000000000000000000000000000000000000000000000000000000081526004016110ba906125cb565b60405180910390fd5b60006110ce8361087d565b90508073ffffffffffffffffffffffffffffffffffffffff168473ffffffffffffffffffffffffffffffffffffffff16148061113d57508373ffffffffffffffffffffffffffffffffffffffff1661112584610516565b73ffffffffffffffffffffffffffffffffffffffff16145b8061114e575061114d8185610c80565b5b91505092915050565b8273ffffffffffffffffffffffffffffffffffffffff166111778261087d565b73ffffffffffffffffffffffffffffffffffffffff16146111cd576040517f08c379a00000000000000000000000000000000000000000000000000000000081526004016111c49061265d565b60405180910390fd5b600073ffffffffffffffffffffffffffffffffffffffff168273ffffffffffffffffffffffffffffffffffffffff16141561123d576040517f08c379a0000000000000000000000000000000000000000000000000000000008152600401611234906126ef565b60405180910390fd5b6112488383836116f4565b611253600082610df2565b6001600360008573ffffffffffffffffffffffffffffffffffffffff1673ffffffffffffffffffffffffffffffffffffffff16815260200190815260200160002060008282546112a3919061270f565b925050819055506001600360008473ffffffffffffffffffffffffffffffffffffffff1673ffffffffffffffffffffffffffffffffffffffff16815260200190815260200160002060008282546112fa9190612503565b92505081905550816002600083815260200190815260200160002060006101000a81548173ffffffffffffffffffffffffffffffffffffffff021916908373ffffffffffffffffffffffffffffffffffffffff160217905550808273ffffffffffffffffffffffffffffffffffffffff168473ffffffffffffffffffffffffffffffffffffffff167fddf252ad1be2c89b69c2b068fc378daa952ba7f163c4a11628f55a4df523b3ef60405160405180910390a4505050565b8173ffffffffffffffffffffffffffffffffffffffff168373ffffffffffffffffffffffffffffffffffffffff161415611422576040517f08c379a00000000000000000000000000000000000000000000000000000000081526004016114199061278f565b60405180910390fd5b80600560008573ffffffffffffffffffffffffffffffffffffffff1673ffffffffffffffffffffffffffffffffffffffff16815260200190815260200160002060008473ffffffffffffffffffffffffffffffffffffffff1673ffffffffffffffffffffffffffffffffffffffff16815260200190815260200160002060006101000a81548160ff0219169083151502179055508173ffffffffffffffffffffffffffffffffffffffff168373ffffffffffffffffffffffffffffffffffffffff167f17307eab39ab6107e8899845ad3d59bd9653f200f220920489ca2b5937696c31836040516115139190611948565b60405180910390a3505050565b61152b848484611157565b611537848484846116f9565b611576576040517f08c379a000000000000000000000000000000000000000000000000000000000815260040161156d90612821565b60405180910390fd5b50505050565b606060405180602001604052806000815250905090565b606060008214156115db576040518060400160405280600181526020017f300000000000000000000000000000000000000000000000000000000000000081525090506116ef565b600082905060005b6000821461160d5780806115f690612841565b915050600a8261160691906128b9565b91506115e3565b60008167ffffffffffffffff81111561162957611628611d22565b5b6040519080825280601f01601f19166020018201604052801561165b5781602001600182028036833780820191505090505b5090505b600085146116e857600182611674919061270f565b9150600a8561168391906128ea565b603061168f9190612503565b60f81b8183815181106116a5576116a461291b565b5b60200101907effffffffffffffffffffffffffffffffffffffffffffffffffffffffffffff1916908160001a905350600a856116e191906128b9565b945061165f565b8093505050505b919050565b505050565b600061171a8473ffffffffffffffffffffffffffffffffffffffff16611881565b15611874578373ffffffffffffffffffffffffffffffffffffffff1663150b7a02611743610dea565b8786866040518563ffffffff1660e01b8152600401611765949392919061299f565b6020604051808303816000875af19250505080156117a157506040513d601f19601f8201168201806040525081019061179e9190612a00565b60015b611824573d80600081146117d1576040519150601f19603f3d011682016040523d82523d6000602084013e6117d6565b606091505b5060008151141561181c576040517f08c379a000000000000000000000000000000000000000000000000000000000815260040161181390612821565b60405180910390fd5b805181602001fd5b63150b7a0260e01b7bffffffffffffffffffffffffffffffffffffffffffffffffffffffff1916817bffffffffffffffffffffffffffffffffffffffffffffffffffffffff191614915050611879565b600190505b949350505050565b600080823b905060008111915050919050565b6000604051905090565b600080fd5b600080fd5b60007fffffffff0000000000000000000000000000000000000000000000000000000082169050919050565b6118dd816118a8565b81146118e857600080fd5b50565b6000813590506118fa816118d4565b92915050565b6000602082840312156119165761191561189e565b5b6000611924848285016118eb565b91505092915050565b60008115159050919050565b6119428161192d565b82525050565b600060208201905061195d6000830184611939565b92915050565b600081519050919050565b600082825260208201905092915050565b60005b8381101561199d578082015181840152602081019050611982565b838111156119ac576000848401525b50505050565b6000601f19601f8301169050919050565b60006119ce82611963565b6119d8818561196e565b93506119e881856020860161197f565b6119f1816119b2565b840191505092915050565b60006020820190508181036000830152611a1681846119c3565b905092915050565b6000819050919050565b611a3181611a1e565b8114611a3c57600080fd5b50565b600081359050611a4e81611a28565b92915050565b600060208284031215611a6a57611a6961189e565b5b6000611a7884828501611a3f565b91505092915050565b600073ffffffffffffffffffffffffffffffffffffffff82169050919050565b6000611aac82611a81565b9050919050565b611abc81611aa1565b82525050565b6000602082019050611ad76000830184611ab3565b92915050565b611ae681611aa1565b8114611af157600080fd5b50565b600081359050611b0381611add565b92915050565b60008060408385031215611b2057611b1f61189e565b5b6000611b2e85828601611af4565b9250506020611b3f85828601611a3f565b9150509250929050565b600060208284031215611b5f57611b5e61189e565b5b6000611b6d84828501611af4565b91505092915050565b600063ffffffff82169050919050565b611b8f81611b76565b82525050565b6000602082019050611baa6000830184611b86565b92915050565b600080600060608486031215611bc957611bc861189e565b5b6000611bd786828701611af4565b9350506020611be886828701611af4565b9250506040611bf986828701611a3f565b9150509250925092565b611c0c81611a1e565b82525050565b6000602082019050611c276000830184611c03565b92915050565b611c368161192d565b8114611c4157600080fd5b50565b600081359050611c5381611c2d565b92915050565b60008060408385031215611c7057611c6f61189e565b5b6000611c7e85828601611af4565b9250506020611c8f85828601611c44565b9150509250929050565b611ca281611b76565b8114611cad57600080fd5b50565b600081359050611cbf81611c99565b92915050565b600080600060608486031215611cde57611cdd61189e565b5b6000611cec86828701611af4565b9350506020611cfd86828701611af4565b9250506040611d0e86828701611cb0565b9150509250925092565b600080fd5b600080fd5b7f4e487b7100000000000000000000000000000000000000000000000000000000600052604160045260246000fd5b611d5a826119b2565b810181811067ffffffffffffffff82111715611d7957611d78611d22565b5b80604052505050565b6000611d8c611894565b9050611d988282611d51565b919050565b600067ffffffffffffffff821115611db857611db7611d22565b5b611dc1826119b2565b9050602081019050919050565b82818337600083830152505050565b6000611df0611deb84611d9d565b611d82565b905082815260208101848484011115611e0c57611e0b611d1d565b5b611e17848285611dce565b509392505050565b600082601f830112611e3457611e33611d18565b5b8135611e44848260208601611ddd565b91505092915050565b60008060008060808587031215611e6757611e6661189e565b5b6000611e7587828801611af4565b9450506020611e8687828801611af4565b9350506040611e9787828801611a3f565b925050606085013567ffffffffffffffff811115611eb857611eb76118a3565b5b611ec487828801611e1f565b91505092959194509250565b60008060408385031215611ee757611ee661189e565b5b6000611ef585828601611af4565b9250506020611f0685828601611af4565b9150509250929050565b7f4e487b7100000000000000000000000000000000000000000000000000000000600052602260045260246000fd5b60006002820490506001821680611f5757607f821691505b60208210811415611f6b57611f6a611f10565b5b50919050565b7f4552433732313a20617070726f76656420717565727920666f72206e6f6e657860008201527f697374656e7420746f6b656e0000000000000000000000000000000000000000602082015250565b6000611fcd602c8361196e565b9150611fd882611f71565b604082019050919050565b60006020820190508181036000830152611ffc81611fc0565b9050919050565b7f4552433732313a20617070726f76616c20746f2063757272656e74206f776e6560008201527f7200000000000000000000000000000000000000000000000000000000000000602082015250565b600061205f60218361196e565b915061206a82612003565b604082019050919050565b6000602082019050818103600083015261208e81612052565b9050919050565b7f4552433732313a20617070726f76652063616c6c6572206973206e6f74206f7760008201527f6e6572206e6f7220617070726f76656420666f7220616c6c0000000000000000602082015250565b60006120f160388361196e565b91506120fc82612095565b604082019050919050565b60006020820190508181036000830152612120816120e4565b9050919050565b7f4e487b7100000000000000000000000000000000000000000000000000000000600052601160045260246000fd5b600061216182611b76565b915063ffffffff82141561217857612177612127565b5b600182019050919050565b7f4552433732313a207472616e736665722063616c6c6572206973206e6f74206f60008201527f776e6572206e6f7220617070726f766564000000000000000000000000000000602082015250565b60006121df60318361196e565b91506121ea82612183565b604082019050919050565b6000602082019050818103600083015261220e816121d2565b9050919050565b7f4552433732313a206f776e657220717565727920666f72206e6f6e657869737460008201527f656e7420746f6b656e0000000000000000000000000000000000000000000000602082015250565b600061227160298361196e565b915061227c82612215565b604082019050919050565b600060208201905081810360008301526122a081612264565b9050919050565b7f4552433732313a2062616c616e636520717565727920666f7220746865207a6560008201527f726f206164647265737300000000000000000000000000000000000000000000602082015250565b6000612303602a8361196e565b915061230e826122a7565b604082019050919050565b60006020820190508181036000830152612332816122f6565b9050919050565b7f4552433732314d657461646174613a2055524920717565727920666f72206e6f60008201527f6e6578697374656e7420746f6b656e0000000000000000000000000000000000602082015250565b6000612395602f8361196e565b91506123a082612339565b604082019050919050565b600060208201905081810360008301526123c481612388565b9050919050565b600081905092915050565b60006123e182611963565b6123eb81856123cb565b93506123fb81856020860161197f565b80840191505092915050565b600061241382856123d6565b915061241f82846123d6565b91508190509392505050565b7f4552433732313a206d696e7420746f20746865207a65726f2061646472657373600082015250565b600061246160208361196e565b915061246c8261242b565b602082019050919050565b6000602082019050818103600083015261249081612454565b9050919050565b7f4552433732313a20746f6b656e20616c7265616479206d696e74656400000000600082015250565b60006124cd601c8361196e565b91506124d882612497565b602082019050919050565b600060208201905081810360008301526124fc816124c0565b9050919050565b600061250e82611a1e565b915061251983611a1e565b9250827fffffffffffffffffffffffffffffffffffffffffffffffffffffffffffffffff0382111561254e5761254d612127565b5b828201905092915050565b7f4552433732313a206f70657261746f7220717565727920666f72206e6f6e657860008201527f697374656e7420746f6b656e0000000000000000000000000000000000000000602082015250565b60006125b5602c8361196e565b91506125c082612559565b604082019050919050565b600060208201905081810360008301526125e4816125a8565b9050919050565b7f4552433732313a207472616e73666572206f6620746f6b656e2074686174206960008201527f73206e6f74206f776e0000000000000000000000000000000000000000000000602082015250565b600061264760298361196e565b9150612652826125eb565b604082019050919050565b600060208201905081810360008301526126768161263a565b9050919050565b7f4552433732313a207472616e7366657220746f20746865207a65726f2061646460008201527f7265737300000000000000000000000000000000000000000000000000000000602082015250565b60006126d960248361196e565b91506126e48261267d565b604082019050919050565b60006020820190508181036000830152612708816126cc565b9050919050565b600061271a82611a1e565b915061272583611a1e565b92508282101561273857612737612127565b5b828203905092915050565b7f4552433732313a20617070726f766520746f2063616c6c657200000000000000600082015250565b600061277960198361196e565b915061278482612743565b602082019050919050565b600060208201905081810360008301526127a88161276c565b9050919050565b7f4552433732313a207472616e7366657220746f206e6f6e20455243373231526560008201527f63656976657220696d706c656d656e7465720000000000000000000000000000602082015250565b600061280b60328361196e565b9150612816826127af565b604082019050919050565b6000602082019050818103600083015261283a816127fe565b9050919050565b600061284c82611a1e565b91507fffffffffffffffffffffffffffffffffffffffffffffffffffffffffffffffff82141561287f5761287e612127565b5b600182019050919050565b7f4e487b7100000000000000000000000000000000000000000000000000000000600052601260045260246000fd5b60006128c482611a1e565b91506128cf83611a1e565b9250826128df576128de61288a565b5b828204905092915050565b60006128f582611a1e565b915061290083611a1e565b9250826129105761290f61288a565b5b828206905092915050565b7f4e487b7100000000000000000000000000000000000000000000000000000000600052603260045260246000fd5b600081519050919050565b600082825260208201905092915050565b60006129718261294a565b61297b8185612955565b935061298b81856020860161197f565b612994816119b2565b840191505092915050565b60006080820190506129b46000830187611ab3565b6129c16020830186611ab3565b6129ce6040830185611c03565b81810360608301526129e08184612966565b905095945050505050565b6000815190506129fa816118d4565b92915050565b600060208284031215612a1657612a1561189e565b5b6000612a24848285016129eb565b9150509291505056fea2646970667358221220458e666315d3e3e025af78098a3ca1559fb63504e629c9535973a581bda0c2ec64736f6c634300080b0033",
  "immutableReferences": {},
  "source": "// SPDX-License-Identifier: GPL-3.0\n\npragma solidity >=0.7.0 <0.9.0;\n\nimport \"@openzeppelin/contracts/token/ERC721/ERC721.sol\";\n\ncontract Condos is ERC721 {\n    // Id holds the value of the last/latest token issued by our contract.\n    uint32 public Id;\n    \n    // Maps each token ID to the Ethereum address that holds that token. \n    mapping(address => uint32)\n    public MDTrack;\n\n    constructor() ERC721(\"Condos Token\", \"CONDO\") payable {\n        Id = 0;\n    }\n\n    function createNFT(address receiver) external returns (uint32) {\n        Id++;\n        _mint(receiver, Id);\n        tokenURI(Id);\n        MDTrack[receiver] = Id;\n        return Id;\n    }\n\n    function transferNFT(address sender, address receiver, uint32 transId) external {\n        transferFrom(sender, receiver, transId);\n        tokenURI(transId);\n        delete MDTrack[sender];\n        MDTrack[receiver] = Id;\n    }\n}",
  "sourcePath": "/Users/josefinelantz/Documents/projects/tokenwallet/contracts/Condos.sol",
  "compiler": {
    "name": "solc",
    "version": "0.8.11+commit.d7f03943.Emscripten.clang"
  },
  "schemaVersion": "3.4.4",
  "updatedAt": "2022-02-08T21:29:14.852Z",
  "networkType": "ethereum",
  "devdoc": {
    "kind": "dev",
    "methods": {
      "approve(address,uint256)": {
        "details": "See {IERC721-approve}."
      },
      "balanceOf(address)": {
        "details": "See {IERC721-balanceOf}."
      },
      "getApproved(uint256)": {
        "details": "See {IERC721-getApproved}."
      },
      "isApprovedForAll(address,address)": {
        "details": "See {IERC721-isApprovedForAll}."
      },
      "name()": {
        "details": "See {IERC721Metadata-name}."
      },
      "ownerOf(uint256)": {
        "details": "See {IERC721-ownerOf}."
      },
      "safeTransferFrom(address,address,uint256)": {
        "details": "See {IERC721-safeTransferFrom}."
      },
      "safeTransferFrom(address,address,uint256,bytes)": {
        "details": "See {IERC721-safeTransferFrom}."
      },
      "setApprovalForAll(address,bool)": {
        "details": "See {IERC721-setApprovalForAll}."
      },
      "supportsInterface(bytes4)": {
        "details": "See {IERC165-supportsInterface}."
      },
      "symbol()": {
        "details": "See {IERC721Metadata-symbol}."
      },
      "tokenURI(uint256)": {
        "details": "See {IERC721Metadata-tokenURI}."
      },
      "transferFrom(address,address,uint256)": {
        "details": "See {IERC721-transferFrom}."
      }
    },
    "version": 1
  },
  "userdoc": {
    "kind": "user",
    "methods": {},
    "version": 1
  }
}